{
  "contractName": "Decentragram",
  "abi": [
    {
      "constant": true,
      "inputs": [],
      "name": "contractName",
      "outputs": [
        {
          "name": "",
          "type": "string"
        }
      ],
      "payable": false,
      "stateMutability": "view",
      "type": "function",
      "signature": "0x75d0c0dc"
    },
    {
      "constant": true,
      "inputs": [],
      "name": "_userID",
      "outputs": [
        {
          "name": "",
          "type": "uint256"
        }
      ],
      "payable": false,
      "stateMutability": "view",
      "type": "function",
      "signature": "0x8865fb75"
    },
    {
      "constant": true,
      "inputs": [
        {
          "name": "",
          "type": "address"
        }
      ],
      "name": "profiles",
      "outputs": [
        {
          "name": "owner",
          "type": "address"
        },
        {
          "name": "username",
          "type": "string"
        },
        {
          "name": "biography",
          "type": "string"
        },
        {
          "name": "profilePictureURL",
          "type": "string"
        },
        {
          "name": "timeCreated",
          "type": "uint256"
        },
        {
          "name": "id",
          "type": "uint256"
        },
        {
          "name": "postCount",
          "type": "uint256"
        },
        {
          "name": "followerCount",
          "type": "uint256"
        },
        {
          "name": "followingCount",
          "type": "uint256"
        }
      ],
      "payable": false,
      "stateMutability": "view",
      "type": "function",
      "signature": "0xbbe15627"
    },
    {
      "constant": true,
      "inputs": [],
      "name": "_postID",
      "outputs": [
        {
          "name": "",
          "type": "uint256"
        }
      ],
      "payable": false,
      "stateMutability": "view",
      "type": "function",
      "signature": "0xeea3ae91"
    },
    {
      "constant": true,
      "inputs": [],
      "name": "admin",
      "outputs": [
        {
          "name": "",
          "type": "address"
        }
      ],
      "payable": false,
      "stateMutability": "view",
      "type": "function",
      "signature": "0xf851a440"
    },
    {
      "inputs": [],
      "payable": false,
      "stateMutability": "nonpayable",
      "type": "constructor",
      "signature": "constructor"
    },
    {
      "anonymous": false,
      "inputs": [
        {
          "indexed": false,
          "name": "owner",
          "type": "address"
        },
        {
          "indexed": false,
          "name": "username",
          "type": "string"
        },
        {
          "indexed": false,
          "name": "biography",
          "type": "string"
        },
        {
          "indexed": false,
          "name": "profilePictureURL",
          "type": "string"
        }
      ],
      "name": "AccountCreated",
      "type": "event",
      "signature": "0x5d364ecbacf316d6ec8e1182cae23084565c5c756b7545dc47bcd857ed0493c2"
    },
    {
      "anonymous": false,
      "inputs": [
        {
          "indexed": false,
          "name": "author",
          "type": "address"
        },
        {
          "indexed": false,
          "name": "postDescription",
          "type": "string"
        },
        {
          "indexed": false,
          "name": "postType",
          "type": "string"
        },
        {
          "indexed": false,
          "name": "postURL",
          "type": "string"
        }
      ],
      "name": "PostCreated",
      "type": "event",
      "signature": "0x2ba81e7f979c30011f3f378b66c0c2a1ea26d82d285bcccff7c336c1bfb84d21"
    },
    {
      "anonymous": false,
      "inputs": [
        {
          "indexed": false,
          "name": "userWhoLike",
          "type": "address"
        },
        {
          "indexed": false,
          "name": "postID",
          "type": "uint256"
        },
        {
          "indexed": false,
          "name": "likeCount",
          "type": "uint256"
        }
      ],
      "name": "PostLiked",
      "type": "event",
      "signature": "0x29ad17d6120e01123e3509137edf8444825cedb1d294738da797e42b35d4157a"
    },
    {
      "anonymous": false,
      "inputs": [
        {
          "indexed": false,
          "name": "userWhoDislike",
          "type": "address"
        },
        {
          "indexed": false,
          "name": "postID",
          "type": "uint256"
        },
        {
          "indexed": false,
          "name": "dislikeCount",
          "type": "uint256"
        }
      ],
      "name": "PostDisliked",
      "type": "event",
      "signature": "0x6d3b028a58074b361b8fc93944b1f21b7dc5377946d5b45e62c68d37ec115fa7"
    },
    {
      "constant": false,
      "inputs": [
        {
          "name": "_username",
          "type": "string"
        },
        {
          "name": "_biography",
          "type": "string"
        },
        {
          "name": "_profilePictureURL",
          "type": "string"
        }
      ],
      "name": "createAccount",
      "outputs": [],
      "payable": false,
      "stateMutability": "nonpayable",
      "type": "function",
      "signature": "0xbc53c0c4"
    },
    {
      "constant": false,
      "inputs": [
        {
          "name": "_address",
          "type": "address"
        },
        {
          "name": "_username",
          "type": "string"
        },
        {
          "name": "_biography",
          "type": "string"
        },
        {
          "name": "_profilePictureURL",
          "type": "string"
        }
      ],
      "name": "editProfile",
      "outputs": [],
      "payable": false,
      "stateMutability": "nonpayable",
      "type": "function",
      "signature": "0xf3ab3dfe"
    },
    {
      "constant": false,
      "inputs": [
        {
          "name": "_postDescription",
          "type": "string"
        },
        {
          "name": "_postURL",
          "type": "string"
        },
        {
          "name": "_postType",
          "type": "string"
        }
      ],
      "name": "createPost",
      "outputs": [],
      "payable": false,
      "stateMutability": "nonpayable",
      "type": "function",
      "signature": "0xe8a4a1eb"
    },
    {
      "constant": false,
      "inputs": [
        {
          "name": "_postId",
          "type": "uint256"
        }
      ],
      "name": "likePost",
      "outputs": [],
      "payable": false,
      "stateMutability": "nonpayable",
      "type": "function",
      "signature": "0x725009d3"
    },
    {
      "constant": false,
      "inputs": [
        {
          "name": "_postId",
          "type": "uint256"
        }
      ],
      "name": "unlikePost",
      "outputs": [],
      "payable": false,
      "stateMutability": "nonpayable",
      "type": "function",
      "signature": "0xfa188de9"
    },
    {
      "constant": false,
      "inputs": [
        {
          "name": "_postId",
          "type": "uint256"
        }
      ],
      "name": "dislikePost",
      "outputs": [],
      "payable": false,
      "stateMutability": "nonpayable",
      "type": "function",
      "signature": "0x732fa7c7"
    },
    {
      "constant": false,
      "inputs": [
        {
          "name": "_postId",
          "type": "uint256"
        }
      ],
      "name": "undislikePost",
      "outputs": [],
      "payable": false,
      "stateMutability": "nonpayable",
      "type": "function",
      "signature": "0xe1354a9d"
    },
    {
      "constant": true,
      "inputs": [],
      "name": "getAllAppUser",
      "outputs": [
        {
          "components": [
            {
              "name": "owner",
              "type": "address"
            },
            {
              "name": "username",
              "type": "string"
            },
            {
              "name": "biography",
              "type": "string"
            },
            {
              "name": "profilePictureURL",
              "type": "string"
            },
            {
              "name": "timeCreated",
              "type": "uint256"
            },
            {
              "name": "id",
              "type": "uint256"
            },
            {
              "name": "postCount",
              "type": "uint256"
            },
            {
              "name": "followerCount",
              "type": "uint256"
            },
            {
              "name": "followingCount",
              "type": "uint256"
            }
          ],
          "name": "",
          "type": "tuple[]"
        }
      ],
      "payable": false,
      "stateMutability": "view",
      "type": "function",
      "signature": "0xa24d41de"
    },
    {
      "constant": true,
      "inputs": [
        {
          "name": "_address",
          "type": "address"
        }
      ],
      "name": "getPosts",
      "outputs": [
        {
          "components": [
            {
              "name": "postId",
              "type": "uint256"
            },
            {
              "name": "author",
              "type": "address"
            },
            {
              "name": "username",
              "type": "string"
            },
            {
              "name": "profilePictureURL",
              "type": "string"
            },
            {
              "name": "postType",
              "type": "string"
            },
            {
              "name": "postURL",
              "type": "string"
            },
            {
              "name": "postDescription",
              "type": "string"
            },
            {
              "name": "timeCreated",
              "type": "uint256"
            },
            {
              "name": "tipAmount",
              "type": "uint256"
            },
            {
              "name": "likes",
              "type": "uint256"
            },
            {
              "name": "dislikes",
              "type": "uint256"
            }
          ],
          "name": "",
          "type": "tuple[]"
        }
      ],
      "payable": false,
      "stateMutability": "view",
      "type": "function",
      "signature": "0x4caf9d0b"
    },
    {
      "constant": true,
      "inputs": [
        {
          "name": "_address",
          "type": "address"
        }
      ],
      "name": "getLikedPostIDs",
      "outputs": [
        {
          "name": "",
          "type": "uint256[]"
        }
      ],
      "payable": false,
      "stateMutability": "view",
      "type": "function",
      "signature": "0x3a8d9962"
    },
    {
      "constant": true,
      "inputs": [
        {
          "name": "_address",
          "type": "address"
        }
      ],
      "name": "getDislikedPostIDs",
      "outputs": [
        {
          "name": "",
          "type": "uint256[]"
        }
      ],
      "payable": false,
      "stateMutability": "view",
      "type": "function",
      "signature": "0x730f04ae"
    },
    {
      "constant": true,
      "inputs": [],
      "name": "getUserCount",
      "outputs": [
        {
          "name": "",
          "type": "uint256"
        }
      ],
      "payable": false,
      "stateMutability": "view",
      "type": "function",
      "signature": "0xb5cb15f7"
    },
    {
      "constant": true,
      "inputs": [],
      "name": "getAddresses",
      "outputs": [
        {
          "name": "",
          "type": "address[]"
        }
      ],
      "payable": false,
      "stateMutability": "view",
      "type": "function",
      "signature": "0xa39fac12"
    },
    {
      "constant": true,
      "inputs": [
        {
          "name": "_address",
          "type": "address"
        }
      ],
      "name": "getFollowers",
      "outputs": [
        {
          "name": "",
          "type": "address[]"
        }
      ],
      "payable": false,
      "stateMutability": "view",
      "type": "function",
      "signature": "0xc2fe2022"
    },
    {
      "constant": true,
      "inputs": [
        {
          "name": "_address",
          "type": "address"
        }
      ],
      "name": "getFollowing",
      "outputs": [
        {
          "name": "",
          "type": "address[]"
        }
      ],
      "payable": false,
      "stateMutability": "view",
      "type": "function",
      "signature": "0xd8236dff"
    },
    {
      "constant": true,
      "inputs": [],
      "name": "getAllPosts",
      "outputs": [
        {
          "components": [
            {
              "name": "postId",
              "type": "uint256"
            },
            {
              "name": "author",
              "type": "address"
            },
            {
              "name": "username",
              "type": "string"
            },
            {
              "name": "profilePictureURL",
              "type": "string"
            },
            {
              "name": "postType",
              "type": "string"
            },
            {
              "name": "postURL",
              "type": "string"
            },
            {
              "name": "postDescription",
              "type": "string"
            },
            {
              "name": "timeCreated",
              "type": "uint256"
            },
            {
              "name": "tipAmount",
              "type": "uint256"
            },
            {
              "name": "likes",
              "type": "uint256"
            },
            {
              "name": "dislikes",
              "type": "uint256"
            }
          ],
          "name": "",
          "type": "tuple[]"
        }
      ],
      "payable": false,
      "stateMutability": "view",
      "type": "function",
      "signature": "0x30561100"
    }
  ],
  "bytecode": "0x60806040523480156200001157600080fd5b506040805190810160405280600c81526020017f446563656e7472616772616d0000000000000000000000000000000000000000815250600090805190602001906200005f929190620000a7565b5033600160006101000a81548173ffffffffffffffffffffffffffffffffffffffff021916908373ffffffffffffffffffffffffffffffffffffffff16021790555062000156565b828054600181600116156101000203166002900490600052602060002090601f016020900481019282601f10620000ea57805160ff19168380011785556200011b565b828001600101855582156200011b579182015b828111156200011a578251825591602001919060010190620000fd565b5b5090506200012a91906200012e565b5090565b6200015391905b808211156200014f57600081600090555060010162000135565b5090565b90565b614aa280620001666000396000f3fe60806040526004361061011d576000357c0100000000000000000000000000000000000000000000000000000000900463ffffffff16806330561100146101225780633a8d99621461014d5780634caf9d0b1461018a578063725009d3146101c7578063730f04ae146101f0578063732fa7c71461022d57806375d0c0dc146102565780638865fb7514610281578063a24d41de146102ac578063a39fac12146102d7578063b5cb15f714610302578063bbe156271461032d578063bc53c0c414610372578063c2fe20221461039b578063d8236dff146103d8578063e1354a9d14610415578063e8a4a1eb1461043e578063eea3ae9114610467578063f3ab3dfe14610492578063f851a440146104bb578063fa188de9146104e6575b600080fd5b34801561012e57600080fd5b5061013761050f565b6040516101449190614771565b60405180910390f35b34801561015957600080fd5b50610174600480360361016f9190810190613eb1565b610b2f565b6040516101819190614793565b60405180910390f35b34801561019657600080fd5b506101b160048036036101ac9190810190613eb1565b610bc6565b6040516101be9190614771565b60405180910390f35b3480156101d357600080fd5b506101ee60048036036101e9919081019061401c565b6110ee565b005b3480156101fc57600080fd5b5061021760048036036102129190810190613eb1565b611596565b6040516102249190614793565b60405180910390f35b34801561023957600080fd5b50610254600480360361024f919081019061401c565b61162d565b005b34801561026257600080fd5b5061026b61196e565b60405161027891906147b5565b60405180910390f35b34801561028d57600080fd5b50610296611a0c565b6040516102a39190614857565b60405180910390f35b3480156102b857600080fd5b506102c1611a12565b6040516102ce919061474f565b60405180910390f35b3480156102e357600080fd5b506102ec611ce1565b6040516102f9919061472d565b60405180910390f35b34801561030e57600080fd5b50610317611d6f565b6040516103249190614857565b60405180910390f35b34801561033957600080fd5b50610354600480360361034f9190810190613eb1565b611d7c565b6040516103699998979695949392919061468b565b60405180910390f35b34801561037e57600080fd5b5061039960048036036103949190810190613f85565b611fb2565b005b3480156103a757600080fd5b506103c260048036036103bd9190810190613eb1565b61265d565b6040516103cf919061472d565b60405180910390f35b3480156103e457600080fd5b506103ff60048036036103fa9190810190613eb1565b612803565b60405161040c919061472d565b60405180910390f35b34801561042157600080fd5b5061043c6004803603610437919081019061401c565b6128d3565b005b34801561044a57600080fd5b5061046560048036036104609190810190613f85565b612dc3565b005b34801561047357600080fd5b5061047c6133b7565b6040516104899190614857565b60405180910390f35b34801561049e57600080fd5b506104b960048036036104b49190810190613eda565b6133bd565b005b3480156104c757600080fd5b506104d0613649565b6040516104dd9190614585565b60405180910390f35b3480156104f257600080fd5b5061050d6004803603610508919081019061401c565b61366f565b005b6060600080905060008090505b6002805490508110156105b6576007600060028381548110151561053c57fe5b9060005260206000200160009054906101000a900473ffffffffffffffffffffffffffffffffffffffff1673ffffffffffffffffffffffffffffffffffffffff1673ffffffffffffffffffffffffffffffffffffffff1681526020019081526020016000208054905082019150808060010191505061051c565b506060816040519080825280602002602001820160405280156105f357816020015b6105e0613b5f565b8152602001906001900390816105d85790505b509050600080905060008090505b600280549050811015610b255760008090505b6007600060028481548110151561062757fe5b9060005260206000200160009054906101000a900473ffffffffffffffffffffffffffffffffffffffff1673ffffffffffffffffffffffffffffffffffffffff1673ffffffffffffffffffffffffffffffffffffffff16815260200190815260200160002080549050811015610b1757600760006002848154811015156106aa57fe5b9060005260206000200160009054906101000a900473ffffffffffffffffffffffffffffffffffffffff1673ffffffffffffffffffffffffffffffffffffffff1673ffffffffffffffffffffffffffffffffffffffff1681526020019081526020016000208181548110151561071c57fe5b90600052602060002090600b02016101606040519081016040529081600082015481526020016001820160009054906101000a900473ffffffffffffffffffffffffffffffffffffffff1673ffffffffffffffffffffffffffffffffffffffff1673ffffffffffffffffffffffffffffffffffffffff168152602001600282018054600181600116156101000203166002900480601f0160208091040260200160405190810160405280929190818152602001828054600181600116156101000203166002900480156108305780601f1061080557610100808354040283529160200191610830565b820191906000526020600020905b81548152906001019060200180831161081357829003601f168201915b50505050508152602001600382018054600181600116156101000203166002900480601f0160208091040260200160405190810160405280929190818152602001828054600181600116156101000203166002900480156108d25780601f106108a7576101008083540402835291602001916108d2565b820191906000526020600020905b8154815290600101906020018083116108b557829003601f168201915b50505050508152602001600482018054600181600116156101000203166002900480601f0160208091040260200160405190810160405280929190818152602001828054600181600116156101000203166002900480156109745780601f1061094957610100808354040283529160200191610974565b820191906000526020600020905b81548152906001019060200180831161095757829003601f168201915b50505050508152602001600582018054600181600116156101000203166002900480601f016020809104026020016040519081016040528092919081815260200182805460018160011615610100020316600290048015610a165780601f106109eb57610100808354040283529160200191610a16565b820191906000526020600020905b8154815290600101906020018083116109f957829003601f168201915b50505050508152602001600682018054600181600116156101000203166002900480601f016020809104026020016040519081016040528092919081815260200182805460018160011615610100020316600290048015610ab85780601f10610a8d57610100808354040283529160200191610ab8565b820191906000526020600020905b815481529060010190602001808311610a9b57829003601f168201915b50505050508152602001600782015481526020016008820154815260200160098201548152602001600a820154815250508484815181101515610af757fe5b906020019060200201819052506001830192508080600101915050610614565b508080600101915050610601565b5081935050505090565b6060600860008373ffffffffffffffffffffffffffffffffffffffff1673ffffffffffffffffffffffffffffffffffffffff168152602001908152602001600020805480602002602001604051908101604052809291908181526020018280548015610bba57602002820191906000526020600020905b815481526020019060010190808311610ba6575b50505050509050919050565b606081600073ffffffffffffffffffffffffffffffffffffffff16600660008373ffffffffffffffffffffffffffffffffffffffff1673ffffffffffffffffffffffffffffffffffffffff16815260200190815260200160002060000160009054906101000a900473ffffffffffffffffffffffffffffffffffffffff1673ffffffffffffffffffffffffffffffffffffffff1614151515610c9d576040517f08c379a0000000000000000000000000000000000000000000000000000000008152600401610c9490614817565b60405180910390fd5b600760008473ffffffffffffffffffffffffffffffffffffffff1673ffffffffffffffffffffffffffffffffffffffff168152602001908152602001600020805480602002602001604051908101604052809291908181526020016000905b828210156110e257838290600052602060002090600b02016101606040519081016040529081600082015481526020016001820160009054906101000a900473ffffffffffffffffffffffffffffffffffffffff1673ffffffffffffffffffffffffffffffffffffffff1673ffffffffffffffffffffffffffffffffffffffff168152602001600282018054600181600116156101000203166002900480601f016020809104026020016040519081016040528092919081815260200182805460018160011615610100020316600290048015610e1a5780601f10610def57610100808354040283529160200191610e1a565b820191906000526020600020905b815481529060010190602001808311610dfd57829003601f168201915b50505050508152602001600382018054600181600116156101000203166002900480601f016020809104026020016040519081016040528092919081815260200182805460018160011615610100020316600290048015610ebc5780601f10610e9157610100808354040283529160200191610ebc565b820191906000526020600020905b815481529060010190602001808311610e9f57829003601f168201915b50505050508152602001600482018054600181600116156101000203166002900480601f016020809104026020016040519081016040528092919081815260200182805460018160011615610100020316600290048015610f5e5780601f10610f3357610100808354040283529160200191610f5e565b820191906000526020600020905b815481529060010190602001808311610f4157829003601f168201915b50505050508152602001600582018054600181600116156101000203166002900480601f0160208091040260200160405190810160405280929190818152602001828054600181600116156101000203166002900480156110005780601f10610fd557610100808354040283529160200191611000565b820191906000526020600020905b815481529060010190602001808311610fe357829003601f168201915b50505050508152602001600682018054600181600116156101000203166002900480601f0160208091040260200160405190810160405280929190818152602001828054600181600116156101000203166002900480156110a25780601f10611077576101008083540402835291602001916110a2565b820191906000526020600020905b81548152906001019060200180831161108557829003601f168201915b50505050508152602001600782015481526020016008820154815260200160098201548152602001600a8201548152505081526020019060010190610cfc565b50505050915050919050565b600073ffffffffffffffffffffffffffffffffffffffff16600660003373ffffffffffffffffffffffffffffffffffffffff1673ffffffffffffffffffffffffffffffffffffffff16815260200190815260200160002060000160009054906101000a900473ffffffffffffffffffffffffffffffffffffffff1673ffffffffffffffffffffffffffffffffffffffff16141515156111c2576040517f08c379a00000000000000000000000000000000000000000000000000000000081526004016111b9906147f7565b60405180910390fd5b60008090505b6002805490508110156115925760008090505b600760006002848154811015156111ee57fe5b9060005260206000200160009054906101000a900473ffffffffffffffffffffffffffffffffffffffff1673ffffffffffffffffffffffffffffffffffffffff1673ffffffffffffffffffffffffffffffffffffffff1681526020019081526020016000208054905081101561158457826007600060028581548110151561127257fe5b9060005260206000200160009054906101000a900473ffffffffffffffffffffffffffffffffffffffff1673ffffffffffffffffffffffffffffffffffffffff1673ffffffffffffffffffffffffffffffffffffffff168152602001908152602001600020828154811015156112e457fe5b90600052602060002090600b0201600001541415611577576007600060028481548110151561130f57fe5b9060005260206000200160009054906101000a900473ffffffffffffffffffffffffffffffffffffffff1673ffffffffffffffffffffffffffffffffffffffff1673ffffffffffffffffffffffffffffffffffffffff1681526020019081526020016000208181548110151561138157fe5b90600052602060002090600b020160090160008154809291906001019190505550600860003373ffffffffffffffffffffffffffffffffffffffff1673ffffffffffffffffffffffffffffffffffffffff1681526020019081526020016000208390806001815401808255809150509060018203906000526020600020016000909192909190915055507f29ad17d6120e01123e3509137edf8444825cedb1d294738da797e42b35d4157a336007600060028681548110151561144057fe5b9060005260206000200160009054906101000a900473ffffffffffffffffffffffffffffffffffffffff1673ffffffffffffffffffffffffffffffffffffffff1673ffffffffffffffffffffffffffffffffffffffff168152602001908152602001600020838154811015156114b257fe5b90600052602060002090600b020160000154600760006002878154811015156114d757fe5b9060005260206000200160009054906101000a900473ffffffffffffffffffffffffffffffffffffffff1673ffffffffffffffffffffffffffffffffffffffff1673ffffffffffffffffffffffffffffffffffffffff1681526020019081526020016000208481548110151561154957fe5b90600052602060002090600b02016009015460405161156a93929190614654565b60405180910390a1611584565b80806001019150506111db565b5080806001019150506111c8565b5050565b6060600960008373ffffffffffffffffffffffffffffffffffffffff1673ffffffffffffffffffffffffffffffffffffffff16815260200190815260200160002080548060200260200160405190810160405280929190818152602001828054801561162157602002820191906000526020600020905b81548152602001906001019080831161160d575b50505050509050919050565b600073ffffffffffffffffffffffffffffffffffffffff16600660003373ffffffffffffffffffffffffffffffffffffffff1673ffffffffffffffffffffffffffffffffffffffff16815260200190815260200160002060000160009054906101000a900473ffffffffffffffffffffffffffffffffffffffff1673ffffffffffffffffffffffffffffffffffffffff1614151515611701576040517f08c379a00000000000000000000000000000000000000000000000000000000081526004016116f8906147f7565b60405180910390fd5b60008090505b60028054905081101561196a5760008090505b6007600060028481548110151561172d57fe5b9060005260206000200160009054906101000a900473ffffffffffffffffffffffffffffffffffffffff1673ffffffffffffffffffffffffffffffffffffffff1673ffffffffffffffffffffffffffffffffffffffff1681526020019081526020016000208054905081101561195c5782600760006002858154811015156117b157fe5b9060005260206000200160009054906101000a900473ffffffffffffffffffffffffffffffffffffffff1673ffffffffffffffffffffffffffffffffffffffff1673ffffffffffffffffffffffffffffffffffffffff1681526020019081526020016000208281548110151561182357fe5b90600052602060002090600b020160000154141561194f576007600060028481548110151561184e57fe5b9060005260206000200160009054906101000a900473ffffffffffffffffffffffffffffffffffffffff1673ffffffffffffffffffffffffffffffffffffffff1673ffffffffffffffffffffffffffffffffffffffff168152602001908152602001600020818154811015156118c057fe5b90600052602060002090600b0201600a0160008154809291906001019190505550600960003373ffffffffffffffffffffffffffffffffffffffff1673ffffffffffffffffffffffffffffffffffffffff16815260200190815260200160002083908060018154018082558091505090600182039060005260206000200160009091929091909150555061195c565b808060010191505061171a565b508080600101915050611707565b5050565b60008054600181600116156101000203166002900480601f016020809104026020016040519081016040528092919081815260200182805460018160011615610100020316600290048015611a045780601f106119d957610100808354040283529160200191611a04565b820191906000526020600020905b8154815290600101906020018083116119e757829003601f168201915b505050505081565b60055481565b6060600a805480602002602001604051908101604052809291908181526020016000905b82821015611cd8578382906000526020600020906009020161012060405190810160405290816000820160009054906101000a900473ffffffffffffffffffffffffffffffffffffffff1673ffffffffffffffffffffffffffffffffffffffff1673ffffffffffffffffffffffffffffffffffffffff168152602001600182018054600181600116156101000203166002900480601f016020809104026020016040519081016040528092919081815260200182805460018160011615610100020316600290048015611b4a5780601f10611b1f57610100808354040283529160200191611b4a565b820191906000526020600020905b815481529060010190602001808311611b2d57829003601f168201915b50505050508152602001600282018054600181600116156101000203166002900480601f016020809104026020016040519081016040528092919081815260200182805460018160011615610100020316600290048015611bec5780601f10611bc157610100808354040283529160200191611bec565b820191906000526020600020905b815481529060010190602001808311611bcf57829003601f168201915b50505050508152602001600382018054600181600116156101000203166002900480601f016020809104026020016040519081016040528092919081815260200182805460018160011615610100020316600290048015611c8e5780601f10611c6357610100808354040283529160200191611c8e565b820191906000526020600020905b815481529060010190602001808311611c7157829003601f168201915b505050505081526020016004820154815260200160058201548152602001600682015481526020016007820154815260200160088201548152505081526020019060010190611a36565b50505050905090565b60606002805480602002602001604051908101604052809291908181526020018280548015611d6557602002820191906000526020600020905b8160009054906101000a900473ffffffffffffffffffffffffffffffffffffffff1673ffffffffffffffffffffffffffffffffffffffff1681526020019060010190808311611d1b575b5050505050905090565b6000600280549050905090565b60066020528060005260406000206000915090508060000160009054906101000a900473ffffffffffffffffffffffffffffffffffffffff1690806001018054600181600116156101000203166002900480601f016020809104026020016040519081016040528092919081815260200182805460018160011615610100020316600290048015611e4e5780601f10611e2357610100808354040283529160200191611e4e565b820191906000526020600020905b815481529060010190602001808311611e3157829003601f168201915b505050505090806002018054600181600116156101000203166002900480601f016020809104026020016040519081016040528092919081815260200182805460018160011615610100020316600290048015611eec5780601f10611ec157610100808354040283529160200191611eec565b820191906000526020600020905b815481529060010190602001808311611ecf57829003601f168201915b505050505090806003018054600181600116156101000203166002900480601f016020809104026020016040519081016040528092919081815260200182805460018160011615610100020316600290048015611f8a5780601f10611f5f57610100808354040283529160200191611f8a565b820191906000526020600020905b815481529060010190602001808311611f6d57829003601f168201915b5050505050908060040154908060050154908060060154908060070154908060080154905089565b600073ffffffffffffffffffffffffffffffffffffffff16600660003373ffffffffffffffffffffffffffffffffffffffff1673ffffffffffffffffffffffffffffffffffffffff16815260200190815260200160002060000160009054906101000a900473ffffffffffffffffffffffffffffffffffffffff1673ffffffffffffffffffffffffffffffffffffffff16141515612085576040517f08c379a000000000000000000000000000000000000000000000000000000000815260040161207c906147d7565b60405180910390fd5b600073ffffffffffffffffffffffffffffffffffffffff166003846040518082805190602001908083835b6020831015156120d557805182526020820191506020810190506020830392506120b0565b6001836020036101000a038019825116818451168082178552505050505050905001915050908152602001604051809103902060009054906101000a900473ffffffffffffffffffffffffffffffffffffffff1673ffffffffffffffffffffffffffffffffffffffff16141515612181576040517f08c379a000000000000000000000000000000000000000000000000000000000815260040161217890614837565b60405180910390fd5b60056000815480929190600101919050555060006005549050336003856040518082805190602001908083835b6020831015156121d357805182526020820191506020810190506020830392506121ae565b6001836020036101000a038019825116818451168082178552505050505050905001915050908152602001604051809103902060006101000a81548173ffffffffffffffffffffffffffffffffffffffff021916908373ffffffffffffffffffffffffffffffffffffffff160217905550610160604051908101604052803373ffffffffffffffffffffffffffffffffffffffff16815260200185815260200184815260200183815260200142815260200182815260200160008152602001600081526020016000815260200160006040519080825280602002602001820160405280156122d05781602001602082028038833980820191505090505b50815260200160006040519080825280602002602001820160405280156123065781602001602082028038833980820191505090505b50815250600660003373ffffffffffffffffffffffffffffffffffffffff1673ffffffffffffffffffffffffffffffffffffffff16815260200190815260200160002060008201518160000160006101000a81548173ffffffffffffffffffffffffffffffffffffffff021916908373ffffffffffffffffffffffffffffffffffffffff16021790555060208201518160010190805190602001906123ac929190613bd0565b5060408201518160020190805190602001906123c9929190613bd0565b5060608201518160030190805190602001906123e6929190613bd0565b506080820151816004015560a0820151816005015560c0820151816006015560e082015181600701556101008201518160080155610120820151816009019080519060200190612437929190613c50565b5061014082015181600a019080519060200190612455929190613c50565b5090505060023390806001815401808255809150509060018203906000526020600020016000909192909190916101000a81548173ffffffffffffffffffffffffffffffffffffffff021916908373ffffffffffffffffffffffffffffffffffffffff16021790555050600a610120604051908101604052803373ffffffffffffffffffffffffffffffffffffffff168152602001868152602001858152602001848152602001428152602001838152602001600081526020016000815260200160008152509080600181540180825580915050906001820390600052602060002090600902016000909192909190915060008201518160000160006101000a81548173ffffffffffffffffffffffffffffffffffffffff021916908373ffffffffffffffffffffffffffffffffffffffff16021790555060208201518160010190805190602001906125a9929190613bd0565b5060408201518160020190805190602001906125c6929190613bd0565b5060608201518160030190805190602001906125e3929190613bd0565b506080820151816004015560a0820151816005015560c0820151816006015560e0820151816007015561010082015181600801555050507f5d364ecbacf316d6ec8e1182cae23084565c5c756b7545dc47bcd857ed0493c23385858560405161264f94939291906145fa565b60405180910390a150505050565b606081600073ffffffffffffffffffffffffffffffffffffffff16600660008373ffffffffffffffffffffffffffffffffffffffff1673ffffffffffffffffffffffffffffffffffffffff16815260200190815260200160002060000160009054906101000a900473ffffffffffffffffffffffffffffffffffffffff1673ffffffffffffffffffffffffffffffffffffffff1614151515612734576040517f08c379a000000000000000000000000000000000000000000000000000000000815260040161272b90614817565b60405180910390fd5b600660008473ffffffffffffffffffffffffffffffffffffffff1673ffffffffffffffffffffffffffffffffffffffff1681526020019081526020016000206009018054806020026020016040519081016040528092919081815260200182805480156127f657602002820191906000526020600020905b8160009054906101000a900473ffffffffffffffffffffffffffffffffffffffff1673ffffffffffffffffffffffffffffffffffffffff16815260200190600101908083116127ac575b5050505050915050919050565b6060600660008373ffffffffffffffffffffffffffffffffffffffff1673ffffffffffffffffffffffffffffffffffffffff168152602001908152602001600020600a018054806020026020016040519081016040528092919081815260200182805480156128c757602002820191906000526020600020905b8160009054906101000a900473ffffffffffffffffffffffffffffffffffffffff1673ffffffffffffffffffffffffffffffffffffffff168152602001906001019080831161287d575b50505050509050919050565b600073ffffffffffffffffffffffffffffffffffffffff16600660003373ffffffffffffffffffffffffffffffffffffffff1673ffffffffffffffffffffffffffffffffffffffff16815260200190815260200160002060000160009054906101000a900473ffffffffffffffffffffffffffffffffffffffff1673ffffffffffffffffffffffffffffffffffffffff16141515156129a7576040517f08c379a000000000000000000000000000000000000000000000000000000000815260040161299e906147f7565b60405180910390fd5b60008090505b600280549050811015612ba85760008090505b600760006002848154811015156129d357fe5b9060005260206000200160009054906101000a900473ffffffffffffffffffffffffffffffffffffffff1673ffffffffffffffffffffffffffffffffffffffff1673ffffffffffffffffffffffffffffffffffffffff16815260200190815260200160002080549050811015612b9a578260076000600285815481101515612a5757fe5b9060005260206000200160009054906101000a900473ffffffffffffffffffffffffffffffffffffffff1673ffffffffffffffffffffffffffffffffffffffff1673ffffffffffffffffffffffffffffffffffffffff16815260200190815260200160002082815481101515612ac957fe5b90600052602060002090600b0201600001541415612b8d5760076000600284815481101515612af457fe5b9060005260206000200160009054906101000a900473ffffffffffffffffffffffffffffffffffffffff1673ffffffffffffffffffffffffffffffffffffffff1673ffffffffffffffffffffffffffffffffffffffff16815260200190815260200160002081815481101515612b6657fe5b90600052602060002090600b0201600a016000815480929190600190039190505550612b9a565b80806001019150506129c0565b5080806001019150506129ad565b5060008090505b600960003373ffffffffffffffffffffffffffffffffffffffff1673ffffffffffffffffffffffffffffffffffffffff16815260200190815260200160002080549050811015612dbf57600960003373ffffffffffffffffffffffffffffffffffffffff1673ffffffffffffffffffffffffffffffffffffffff16815260200190815260200160002081815481101515612c4557fe5b9060005260206000200154821415612db257600960003373ffffffffffffffffffffffffffffffffffffffff1673ffffffffffffffffffffffffffffffffffffffff1681526020019081526020016000206001600960003373ffffffffffffffffffffffffffffffffffffffff1673ffffffffffffffffffffffffffffffffffffffff1681526020019081526020016000208054905003815481101515612ce857fe5b9060005260206000200154600960003373ffffffffffffffffffffffffffffffffffffffff1673ffffffffffffffffffffffffffffffffffffffff16815260200190815260200160002082815481101515612d3f57fe5b9060005260206000200181905550600960003373ffffffffffffffffffffffffffffffffffffffff1673ffffffffffffffffffffffffffffffffffffffff1681526020019081526020016000208054801515612d9757fe5b60019003818190600052602060002001600090559055612dbf565b8080600101915050612baf565b5050565b600073ffffffffffffffffffffffffffffffffffffffff16600660003373ffffffffffffffffffffffffffffffffffffffff1673ffffffffffffffffffffffffffffffffffffffff16815260200190815260200160002060000160009054906101000a900473ffffffffffffffffffffffffffffffffffffffff1673ffffffffffffffffffffffffffffffffffffffff1614151515612e97576040517f08c379a0000000000000000000000000000000000000000000000000000000008152600401612e8e906147f7565b60405180910390fd5b60046000815480929190600101919050555060006004549050612eb8613cda565b610160604051908101604052808381526020013373ffffffffffffffffffffffffffffffffffffffff168152602001600660003373ffffffffffffffffffffffffffffffffffffffff1673ffffffffffffffffffffffffffffffffffffffff1681526020019081526020016000206001018054600181600116156101000203166002900480601f016020809104026020016040519081016040528092919081815260200182805460018160011615610100020316600290048015612fbd5780601f10612f9257610100808354040283529160200191612fbd565b820191906000526020600020905b815481529060010190602001808311612fa057829003601f168201915b50505050508152602001600660003373ffffffffffffffffffffffffffffffffffffffff1673ffffffffffffffffffffffffffffffffffffffff1681526020019081526020016000206003018054600181600116156101000203166002900480601f01602080910402602001604051908101604052809291908181526020018280546001816001161561010002031660029004801561309d5780601f106130725761010080835404028352916020019161309d565b820191906000526020600020905b81548152906001019060200180831161308057829003601f168201915b5050505050815260200184815260200185815260200186815260200142815260200160008152602001600081526020016000815250905060076000826020015173ffffffffffffffffffffffffffffffffffffffff1673ffffffffffffffffffffffffffffffffffffffff168152602001908152602001600020819080600181540180825580915050906001820390600052602060002090600b0201600090919290919091506000820151816000015560208201518160010160006101000a81548173ffffffffffffffffffffffffffffffffffffffff021916908373ffffffffffffffffffffffffffffffffffffffff16021790555060408201518160020190805190602001906131b0929190613bd0565b5060608201518160030190805190602001906131cd929190613bd0565b5060808201518160040190805190602001906131ea929190613bd0565b5060a0820151816005019080519060200190613207929190613bd0565b5060c0820151816006019080519060200190613224929190613bd0565b5060e082015181600701556101008201518160080155610120820151816009015561014082015181600a015550505060066000826020015173ffffffffffffffffffffffffffffffffffffffff1673ffffffffffffffffffffffffffffffffffffffff1681526020019081526020016000206006016000815480929190600101919050555060008090505b600a8054905081101561337257816020015173ffffffffffffffffffffffffffffffffffffffff16600a828154811015156132e657fe5b906000526020600020906009020160000160009054906101000a900473ffffffffffffffffffffffffffffffffffffffff1673ffffffffffffffffffffffffffffffffffffffff16141561336557600a8181548110151561334357fe5b9060005260206000209060090201600601600081548092919060010191905055505b80806001019150506132af565b507f2ba81e7f979c30011f3f378b66c0c2a1ea26d82d285bcccff7c336c1bfb84d21338685876040516133a894939291906145a0565b60405180910390a15050505050565b60045481565b60008090505b600a80549050811015613605578473ffffffffffffffffffffffffffffffffffffffff16600a828154811015156133f657fe5b906000526020600020906009020160000160009054906101000a900473ffffffffffffffffffffffffffffffffffffffff1673ffffffffffffffffffffffffffffffffffffffff1614156135f85783600a8281548110151561345457fe5b90600052602060002090600902016001019080519060200190613478929190613d4b565b5082600a8281548110151561348957fe5b906000526020600020906009020160020190805190602001906134ad929190613d4b565b5083600660008773ffffffffffffffffffffffffffffffffffffffff1673ffffffffffffffffffffffffffffffffffffffff1681526020019081526020016000206001019080519060200190613504929190613d4b565b5082600660008773ffffffffffffffffffffffffffffffffffffffff1673ffffffffffffffffffffffffffffffffffffffff168152602001908152602001600020600201908051906020019061355b929190613d4b565b506000825111156135f35781600a8281548110151561357657fe5b9060005260206000209060090201600301908051906020019061359a929190613d4b565b5081600660008773ffffffffffffffffffffffffffffffffffffffff1673ffffffffffffffffffffffffffffffffffffffff16815260200190815260200160002060030190805190602001906135f1929190613d4b565b505b613605565b80806001019150506133c3565b507f5d364ecbacf316d6ec8e1182cae23084565c5c756b7545dc47bcd857ed0493c23384848460405161363b94939291906145fa565b60405180910390a150505050565b600160009054906101000a900473ffffffffffffffffffffffffffffffffffffffff1681565b600073ffffffffffffffffffffffffffffffffffffffff16600660003373ffffffffffffffffffffffffffffffffffffffff1673ffffffffffffffffffffffffffffffffffffffff16815260200190815260200160002060000160009054906101000a900473ffffffffffffffffffffffffffffffffffffffff1673ffffffffffffffffffffffffffffffffffffffff1614151515613743576040517f08c379a000000000000000000000000000000000000000000000000000000000815260040161373a906147f7565b60405180910390fd5b60008090505b6002805490508110156139445760008090505b6007600060028481548110151561376f57fe5b9060005260206000200160009054906101000a900473ffffffffffffffffffffffffffffffffffffffff1673ffffffffffffffffffffffffffffffffffffffff1673ffffffffffffffffffffffffffffffffffffffff168152602001908152602001600020805490508110156139365782600760006002858154811015156137f357fe5b9060005260206000200160009054906101000a900473ffffffffffffffffffffffffffffffffffffffff1673ffffffffffffffffffffffffffffffffffffffff1673ffffffffffffffffffffffffffffffffffffffff1681526020019081526020016000208281548110151561386557fe5b90600052602060002090600b0201600001541415613929576007600060028481548110151561389057fe5b9060005260206000200160009054906101000a900473ffffffffffffffffffffffffffffffffffffffff1673ffffffffffffffffffffffffffffffffffffffff1673ffffffffffffffffffffffffffffffffffffffff1681526020019081526020016000208181548110151561390257fe5b90600052602060002090600b02016009016000815480929190600190039190505550613936565b808060010191505061375c565b508080600101915050613749565b5060008090505b600860003373ffffffffffffffffffffffffffffffffffffffff1673ffffffffffffffffffffffffffffffffffffffff16815260200190815260200160002080549050811015613b5b57600860003373ffffffffffffffffffffffffffffffffffffffff1673ffffffffffffffffffffffffffffffffffffffff168152602001908152602001600020818154811015156139e157fe5b9060005260206000200154821415613b4e57600860003373ffffffffffffffffffffffffffffffffffffffff1673ffffffffffffffffffffffffffffffffffffffff1681526020019081526020016000206001600860003373ffffffffffffffffffffffffffffffffffffffff1673ffffffffffffffffffffffffffffffffffffffff1681526020019081526020016000208054905003815481101515613a8457fe5b9060005260206000200154600860003373ffffffffffffffffffffffffffffffffffffffff1673ffffffffffffffffffffffffffffffffffffffff16815260200190815260200160002082815481101515613adb57fe5b9060005260206000200181905550600860003373ffffffffffffffffffffffffffffffffffffffff1673ffffffffffffffffffffffffffffffffffffffff1681526020019081526020016000208054801515613b3357fe5b60019003818190600052602060002001600090559055613b5b565b808060010191505061394b565b5050565b6101606040519081016040528060008152602001600073ffffffffffffffffffffffffffffffffffffffff1681526020016060815260200160608152602001606081526020016060815260200160608152602001600081526020016000815260200160008152602001600081525090565b828054600181600116156101000203166002900490600052602060002090601f016020900481019282601f10613c1157805160ff1916838001178555613c3f565b82800160010185558215613c3f579182015b82811115613c3e578251825591602001919060010190613c23565b5b509050613c4c9190613dcb565b5090565b828054828255906000526020600020908101928215613cc9579160200282015b82811115613cc85782518260006101000a81548173ffffffffffffffffffffffffffffffffffffffff021916908373ffffffffffffffffffffffffffffffffffffffff16021790555091602001919060010190613c70565b5b509050613cd69190613df0565b5090565b6101606040519081016040528060008152602001600073ffffffffffffffffffffffffffffffffffffffff1681526020016060815260200160608152602001606081526020016060815260200160608152602001600081526020016000815260200160008152602001600081525090565b828054600181600116156101000203166002900490600052602060002090601f016020900481019282601f10613d8c57805160ff1916838001178555613dba565b82800160010185558215613dba579182015b82811115613db9578251825591602001919060010190613d9e565b5b509050613dc79190613dcb565b5090565b613ded91905b80821115613de9576000816000905550600101613dd1565b5090565b90565b613e3091905b80821115613e2c57600081816101000a81549073ffffffffffffffffffffffffffffffffffffffff021916905550600101613df6565b5090565b90565b6000613e3f82356149c3565b905092915050565b600082601f8301121515613e5a57600080fd5b8135613e6d613e688261489f565b614872565b91508082526020830160208301858383011115613e8957600080fd5b613e94838284614a15565b50505092915050565b6000613ea982356149d5565b905092915050565b600060208284031215613ec357600080fd5b6000613ed184828501613e33565b91505092915050565b60008060008060808587031215613ef057600080fd5b6000613efe87828801613e33565b945050602085013567ffffffffffffffff811115613f1b57600080fd5b613f2787828801613e47565b935050604085013567ffffffffffffffff811115613f4457600080fd5b613f5087828801613e47565b925050606085013567ffffffffffffffff811115613f6d57600080fd5b613f7987828801613e47565b91505092959194509250565b600080600060608486031215613f9a57600080fd5b600084013567ffffffffffffffff811115613fb457600080fd5b613fc086828701613e47565b935050602084013567ffffffffffffffff811115613fdd57600080fd5b613fe986828701613e47565b925050604084013567ffffffffffffffff81111561400657600080fd5b61401286828701613e47565b9150509250925092565b60006020828403121561402e57600080fd5b600061403c84828501613e9d565b91505092915050565b61404e816149df565b82525050565b61405d81614987565b82525050565b61406c81614975565b82525050565b600061407d826148ff565b80845260208401935061408f836148cb565b60005b828110156140c1576140a5868351614063565b6140ae82614941565b9150602086019550600181019050614092565b50849250505092915050565b60006140d88261490a565b808452602084019350836020820285016140f1856148d8565b60005b8481101561412a57838303885261410c838351614398565b92506141178261494e565b91506020880197506001810190506140f4565b508196508694505050505092915050565b600061414682614915565b8084526020840193508360208202850161415f856148e5565b60005b8481101561419857838303885261417a83835161446b565b92506141858261495b565b9150602088019750600181019050614162565b508196508694505050505092915050565b60006141b482614920565b8084526020840193506141c6836148f2565b60005b828110156141f8576141dc868351614576565b6141e582614968565b91506020860195506001810190506141c9565b50849250505092915050565b600061420f82614936565b808452614223816020860160208601614a24565b61422c81614a57565b602085010191505092915050565b60006142458261492b565b808452614259816020860160208601614a24565b61426281614a57565b602085010191505092915050565b6000602c82527f4552524f523a203c596f75206861766520616c7265616479206372656174656460208301527f20616e206163636f756e743e00000000000000000000000000000000000000006040830152606082019050919050565b6000603582527f4552524f523a203c4d7573742063726561746520612070726f66696c6520746f60208301527f20706572666f726d207468697320616374696f6e3e00000000000000000000006040830152606082019050919050565b6000601f82527f4552524f523a203c50726f66696c6520646f6573206e6f742065786973743e006020830152604082019050919050565b6000601782527f4552524f523a203c557365726e616d652074616b656e3e0000000000000000006020830152604082019050919050565b6000610120830160008301516143b16000860182614063565b50602083015184820360208601526143c9828261423a565b915050604083015184820360408601526143e3828261423a565b915050606083015184820360608601526143fd828261423a565b91505060808301516144126080860182614576565b5060a083015161442560a0860182614576565b5060c083015161443860c0860182614576565b5060e083015161444b60e0860182614576565b50610100830151614460610100860182614576565b508091505092915050565b6000610160830160008301516144846000860182614576565b5060208301516144976020860182614054565b50604083015184820360408601526144af828261423a565b915050606083015184820360608601526144c9828261423a565b915050608083015184820360808601526144e3828261423a565b91505060a083015184820360a08601526144fd828261423a565b91505060c083015184820360c0860152614517828261423a565b91505060e083015161452c60e0860182614576565b50610100830151614541610100860182614576565b50610120830151614556610120860182614576565b5061014083015161456b610140860182614576565b508091505092915050565b61457f816149b9565b82525050565b600060208201905061459a6000830184614063565b92915050565b60006080820190506145b56000830187614054565b81810360208301526145c78186614204565b905081810360408301526145db8185614204565b905081810360608301526145ef8184614204565b905095945050505050565b600060808201905061460f6000830187614045565b81810360208301526146218186614204565b905081810360408301526146358185614204565b905081810360608301526146498184614204565b905095945050505050565b60006060820190506146696000830186614045565b6146766020830185614576565b6146836040830184614576565b949350505050565b6000610120820190506146a1600083018c614063565b81810360208301526146b3818b61423a565b905081810360408301526146c7818a61423a565b905081810360608301526146db818961423a565b90506146ea6080830188614576565b6146f760a0830187614576565b61470460c0830186614576565b61471160e0830185614576565b61471f610100830184614576565b9a9950505050505050505050565b600060208201905081810360008301526147478184614072565b905092915050565b6000602082019050818103600083015261476981846140cd565b905092915050565b6000602082019050818103600083015261478b818461413b565b905092915050565b600060208201905081810360008301526147ad81846141a9565b905092915050565b600060208201905081810360008301526147cf818461423a565b905092915050565b600060208201905081810360008301526147f081614270565b9050919050565b60006020820190508181036000830152614810816142cd565b9050919050565b600060208201905081810360008301526148308161432a565b9050919050565b6000602082019050818103600083015261485081614361565b9050919050565b600060208201905061486c6000830184614576565b92915050565b6000604051905081810181811067ffffffffffffffff8211171561489557600080fd5b8060405250919050565b600067ffffffffffffffff8211156148b657600080fd5b601f19601f8301169050602081019050919050565b6000602082019050919050565b6000602082019050919050565b6000602082019050919050565b6000602082019050919050565b600081519050919050565b600081519050919050565b600081519050919050565b600081519050919050565b600081519050919050565b600081519050919050565b6000602082019050919050565b6000602082019050919050565b6000602082019050919050565b6000602082019050919050565b600061498082614999565b9050919050565b600061499282614999565b9050919050565b600073ffffffffffffffffffffffffffffffffffffffff82169050919050565b6000819050919050565b60006149ce82614999565b9050919050565b6000819050919050565b60006149ea826149f1565b9050919050565b60006149fc82614a03565b9050919050565b6000614a0e82614999565b9050919050565b82818337600083830152505050565b60005b83811015614a42578082015181840152602081019050614a27565b83811115614a51576000848401525b50505050565b6000601f19601f830116905091905056fea265627a7a723058203bac0ac51372292573781d239d9b31f0c2ad9ed822010c442b5635e0dd166b166c6578706572696d656e74616cf50037",
  "source": "pragma solidity ^0.5.0;\npragma experimental ABIEncoderV2;\n\ncontract Decentragram {\n    string public contractName;\n    address public admin;\n    address[] internal addresses;\n    mapping(string => address) internal names;\n\n    //Generating ID\n    uint256 public _postID;\n    uint256 public _userID;\n\n    // Profile\n    struct Profile {\n        address owner;\n        string username;\n        string biography;\n        string profilePictureURL;\n        uint timeCreated;\n        uint id;\n        uint postCount;\n        uint followerCount;\n        uint followingCount;\n        address[] followers;\n        address[] following;\n    }\n\n    struct Post {\n        uint postId;\n        address payable author;\n        string username;\n        string profilePictureURL;\n        string postType;\n        string postURL;\n        string postDescription;\n        uint timeCreated;\n        uint tipAmount;\n        uint likes;\n        uint dislikes;\n    }\n\n    struct AllUserStruct {\n        address owner;\n        string username;\n        string biography;\n        string profilePictureURL;\n        uint timeCreated;\n        uint id;\n        uint postCount;\n        uint followerCount;\n        uint followingCount;\n    }\n\n    // to map from the user account address to related profile struct\n    mapping(address => Profile) public profiles;\n    // to map from the user's account address to the array of related posts created\n    mapping(address => Post[]) internal posts;\n    // to map from the user's account address to the array of post ids that the user liked\n    mapping(address => uint[]) internal likedPosts;\n    // to map from the user's account address to the array of post ids that the user disliked\n    mapping(address => uint[]) internal dislikedPosts;\n    // array to store all the registered users\n    AllUserStruct[] getAllUsers;\n    // array to store all the created posts by users\n    Post[] allPosts;\n\n    // Events\n\n    event AccountCreated(\n        address owner,\n        string username,\n        string biography,\n        string profilePictureURL\n    );\n\n    event PostCreated(\n        address payable author,\n        string postDescription,\n        string postType,\n        string postURL\n    );\n\n    event PostLiked(address userWhoLike, uint256 postID, uint256 likeCount);\n\n    event PostDisliked(\n        address userWhoDislike,\n        uint256 postID,\n        uint256 dislikeCount\n    );\n\n    // Check if message sender has a created profile\n    modifier senderHasProfile() {\n        require(\n            profiles[msg.sender].owner != address(0x0),\n            \"ERROR: <Must create a profile to perform this action>\"\n        );\n        _;\n    }\n\n    // Check if a specified address has created a profile\n    modifier profileExists(address _address) {\n        require(\n            profiles[_address].owner != address(0x0),\n            \"ERROR: <Profile does not exist>\"\n        );\n        _;\n    }\n\n    // Check that the message sender is not specifying an address that is itself\n    modifier notSelf(address _address) {\n        require(\n            msg.sender != _address,\n            \"ERROR <You cannot follow/unfollow yourself\"\n        );\n        _;\n    }\n\n    constructor() public {\n        contractName = \"Decentragram\";\n        admin = msg.sender;\n    }\n\n    // Create a new user account\n    function createAccount(\n        string memory _username,\n        string memory _biography,\n        string memory _profilePictureURL\n    ) public {\n        // Checks that the current account address did not already make a user account\n        require(\n            profiles[msg.sender].owner == address(0x0),\n            \"ERROR: <You have already created an account>\"\n        );\n        // Checks that the current account address did not choose a taken username\n        require(names[_username] == address(0x0), \"ERROR: <Username taken>\");\n        //Increment User ID\n        _userID++;\n        uint256 userID = _userID;\n\n        // Updates username list\n        names[_username] = msg.sender;\n\n        // Create the new profile object and add it to \"profiles\" mapping\n        profiles[msg.sender] = Profile({\n            owner: msg.sender,\n            username: _username,\n            biography: _biography,\n            profilePictureURL: _profilePictureURL,\n            timeCreated: block.timestamp,\n            id: userID,\n            postCount: 0,\n            followerCount: 0,\n            followingCount: 0,\n            followers: new address[](0x0),\n            following: new address[](0x0)\n        });\n\n        // Add address to list of global addresses\n        addresses.push(msg.sender);\n\n        getAllUsers.push(\n            AllUserStruct(\n                msg.sender,\n                _username,\n                _biography,\n                _profilePictureURL,\n                block.timestamp,\n                userID,\n                0,\n                0,\n                0\n            )\n        );\n        emit AccountCreated(\n            msg.sender,\n            _username,\n            _biography,\n            _profilePictureURL\n        );\n    }\n\n    function editProfile(\n        address _address,\n        string memory _username,\n        string memory _biography,\n        string memory _profilePictureURL\n    ) public {\n        for (uint i = 0; i < getAllUsers.length; i++) {\n            if (getAllUsers[i].owner == _address) {\n                getAllUsers[i].username = _username;\n                getAllUsers[i].biography = _biography;\n                profiles[_address].username = _username;\n                profiles[_address].biography = _biography;\n                if (bytes(_profilePictureURL).length > 0) {\n                    getAllUsers[i].profilePictureURL = _profilePictureURL;\n                    profiles[_address].profilePictureURL = _profilePictureURL;\n                }\n                break;\n            }\n        }\n        emit AccountCreated(\n            msg.sender,\n            _username,\n            _biography,\n            _profilePictureURL\n        );\n    }\n\n    //Create a Post\n    function createPost(\n        string memory _postDescription,\n        string memory _postURL,\n        string memory _postType\n    ) public senderHasProfile {\n        _postID++;\n        uint256 postID = _postID;\n\n        Post memory newPost = Post({\n            postId: postID,\n            author: msg.sender,\n            username: profiles[msg.sender].username,\n            profilePictureURL: profiles[msg.sender].profilePictureURL,\n            postType: _postType,\n            postURL: _postURL,\n            postDescription: _postDescription,\n            timeCreated: block.timestamp,\n            tipAmount: 0,\n            likes: 0,\n            dislikes: 0\n        });\n\n        // Add entry to \"posts\" mappings\n        posts[newPost.author].push(newPost);\n\n        // Increment \"postCount\" in Profile object\n        profiles[newPost.author].postCount++;\n        // Increment \"postCount\" in All User object\n        for (uint256 i = 0; i < getAllUsers.length; i++) {\n            if (getAllUsers[i].owner == newPost.author) {\n                getAllUsers[i].postCount++;\n            }\n        }\n\n        emit PostCreated(msg.sender, _postDescription, _postType, _postURL);\n    }\n\n    // like post\n    function likePost(uint256 _postId) external senderHasProfile {\n        for (uint i = 0; i < addresses.length; i++) {\n            for (uint j = 0; j < posts[addresses[i]].length; j++) {\n                if (posts[addresses[i]][j].postId == _postId) {\n                    posts[addresses[i]][j].likes++;\n                    likedPosts[msg.sender].push(_postId);\n                    emit PostLiked(\n                        msg.sender,\n                        posts[addresses[i]][j].postId,\n                        posts[addresses[i]][j].likes\n                    );\n                    break;\n                }\n            }\n        }\n    }\n    // Unlike post\n    function unlikePost(uint256 _postId) external senderHasProfile {\n        for (uint i = 0; i < addresses.length; i++) {\n            for (uint j = 0; j < posts[addresses[i]].length; j++) {\n                if (posts[addresses[i]][j].postId == _postId) {\n                    posts[addresses[i]][j].likes--;\n                    break;\n                }\n            }\n        }\n        for (uint i = 0; i < likedPosts[msg.sender].length; i++) {\n            if (_postId == likedPosts[msg.sender][i]) {\n                likedPosts[msg.sender][i] = likedPosts[msg.sender][\n                    likedPosts[msg.sender].length - 1\n                ];\n                likedPosts[msg.sender].pop();\n                break;\n            }\n        }\n    }\n\n    // dislike post\n    function dislikePost(uint256 _postId) external senderHasProfile {\n        for (uint i = 0; i < addresses.length; i++) {\n            for (uint j = 0; j < posts[addresses[i]].length; j++) {\n                if (posts[addresses[i]][j].postId == _postId) {\n                    posts[addresses[i]][j].dislikes++;\n                    dislikedPosts[msg.sender].push(_postId);\n                    break;\n                }\n            }\n        }\n    }\n\n    // undislike post\n    function undislikePost(uint256 _postId) external senderHasProfile {\n        for (uint i = 0; i < addresses.length; i++) {\n            for (uint j = 0; j < posts[addresses[i]].length; j++) {\n                if (posts[addresses[i]][j].postId == _postId) {\n                    posts[addresses[i]][j].dislikes--;\n                    break;\n                }\n            }\n        }\n        for (uint i = 0; i < dislikedPosts[msg.sender].length; i++) {\n            if (_postId == dislikedPosts[msg.sender][i]) {\n                dislikedPosts[msg.sender][i] = dislikedPosts[msg.sender][\n                    dislikedPosts[msg.sender].length - 1\n                ];\n                dislikedPosts[msg.sender].pop();\n                break;\n            }\n        }\n    }\n\n    // Return all registered users\n    function getAllAppUser() public view returns (AllUserStruct[] memory) {\n        return getAllUsers;\n    }\n\n    // Returns all posts from a given address\n    function getPosts(\n        address _address\n    ) external view profileExists(_address) returns (Post[] memory) {\n        return posts[_address];\n    }\n\n    function getLikedPostIDs(\n        address _address\n    ) external view returns (uint[] memory) {\n        return likedPosts[_address];\n    }\n\n    function getDislikedPostIDs(\n        address _address\n    ) external view returns (uint[] memory) {\n        return dislikedPosts[_address];\n    }\n\n    // Returns total user count\n    function getUserCount() external view returns (uint) {\n        return addresses.length;\n    }\n\n    // Returns all registered addresses\n    function getAddresses() external view returns (address[] memory) {\n        return addresses;\n    }\n\n    // Get all followers of a specific address\n    function getFollowers(\n        address _address\n    ) external view profileExists(_address) returns (address[] memory) {\n        return profiles[_address].followers;\n    }\n\n    // Get all followed accounts of a specific address\n    function getFollowing(\n        address _address\n    ) external view returns (address[] memory) {\n        return profiles[_address].following;\n    }\n\n    function getAllPosts() public view returns (Post[] memory) {\n        uint256 itemCount = 0;\n        for (uint256 i = 0; i < addresses.length; i++) {\n            itemCount += posts[addresses[i]].length;\n        }\n\n        Post[] memory items = new Post[](itemCount);\n        uint256 currentIndex = 0;\n\n        for (uint256 i = 0; i < addresses.length; i++) {\n            for (uint j = 0; j < posts[addresses[i]].length; j++) {\n                items[currentIndex] = posts[addresses[i]][j];\n                currentIndex += 1;\n            }\n        }\n        return items;\n    }\n}\n",
  "sourcePath": "/Users/myothiha/Dev/projects/mspace-vmz/src/contracts/Decentragram.sol",
  "compiler": {
    "name": "solc",
    "version": "0.5.0+commit.1d4f565a.Emscripten.clang"
  },
  "schemaVersion": "3.0.2",
  "updatedAt": "2024-07-20T21:58:52.388Z",
  "devdoc": {
    "methods": {}
  },
  "userdoc": {
    "methods": {}
  }
}